:020000040000FA
:060000000A128A1110280B
:10000800FE00030EF0000A08F100831203137F08B4
:10001800F2000A128A15062D0A128A1113280A12EA
:100028008A11FD270A128A11FA00831320308400EE
:1000380046300A128A1576230A128A11F801F90144
:1000480083010A128A112D2E83120313D500113051
:100058003C063D04031931283228402812303C065A
:100068003D04031938283928402814303C063D043B
:10007800031D3F2840287928FF30D3005308D500B6
:10008800AA01AB01B801B901BA01BB01B001B101C4
:10009800AC01AD018630C6008530C7008030D30082
:1000A8005308C8000A128A1529240A128A11DC305A
:1000B80083120313C6008530C700C030D30053082D
:1000C800C8000A128A1529240A128A119630831246
:1000D8000313C6008530C700D030D3005308C800CA
:1000E8000A128A1529240A128A1183120313550A3F
:1000F80003197F28802829292A30550603198528BD
:10010800862829292330550603198B288C28292964
:100118000130AA070318AB0A0030AB072B08803A56
:10012800FF0080307F02031D9B2803302A0203183A
:100138009E289F28B928831203133908F400380829
:10014800F3000A30F5000030F6000A128A15FE2383
:100158000A128A118312031355087307B800003076
:10016800031801307407B900F028831203132B0811
:10017800803AFF0080307F02031DC42803302A0222
:10018800031CC728C828F028831203132B08803AB9
:10019800FF0080307F02031DD32805302A02031890
:1001A800D628D728F028831203133B08F4003A080E
:1001B800F3000A30F5000030F6000A128A15FE2313
:1001C8000A128A118312031355087307BA00003004
:1001D800031801307407BB00831203132B08803AFD
:1001E800FF0080307F02031DFB2802302A0203181B
:1001F800FE28FF28042983120313AC01AD017E29D0
:10020800831203132B08803AFF0080307F02031DFE
:100218000F2902302A02031C122913297E2983126E
:1002280003132B08803AFF0080307F02031D1E292C
:1002380005302A020318212922297E290130831238
:100248000313AC000030AD007E292A305506031D8B
:100258002E292F296B292B08803AFF0080307F0236
:10026800031D382903302A0203183B293C29442955
:1002780083120313B801B901AA01AB01AC01AD01A6
:10028800831203132B08803AFF0080307F02031D7E
:100298004F2903302A02031C522953297E2983122D
:1002A80003132B08803AFF0080307F02031D5E296C
:1002B80005302A020318612962297E298312031353
:1002C800BA01BB010230AA000030AB007E292330FE
:1002D8005506031D702971297E290A128A156E2375
:1002E8000A128A118312031312150630BE00003059
:1002F800BF0007150A3083120313C8000030C90075
:100308003908CB003808CA000A128A151C260A12B6
:100318008A11831203134808303ED3005308C300E0
:100328000A30F3000030F4003908F6003808F50008
:100338000A128A155E250A128A117308303E831242
:100348000313D3005308C400C5010A30C8000030A5
:10035800C9003B08CB003A08CA000A128A151C26B5
:100368000A128A11831203134808303ED300530837
:10037800C0000A30F3000030F4003B08F6003A08E9
:10038800F5000A128A155E250A128A117308303E92
:1003980083120313D3005308C100C201C830D3002D
:1003A8005308D1003A300A128A15A6230A128A1174
:1003B800013083120313AE070318AF0A0030AF07EA
:1003C80033302E062F04031DEA29EB29172AAE0124
:1003D800AF01300831040319F229F4290130F52955
:1003E8000030D300D4015308B0005408B1004030A5
:1003F800C6000030C700C630D3005308C8000A1230
:100408008A1529240A128A11433083120313C6005D
:100418000030C700C930D3005308C8000A128A1533
:1004280029240A128A118312031330083104031D88
:100438001E2A1F2A492A3C2A7330C6008530C70065
:10044800C930D3005308C8000A128A1529240A1291
:100458008A11492A7330C6008530C700C630D300D8
:100468005308C8000A128A1529240A128A11492A2F
:100478002D08003A0319412A492A2C08003A031981
:10048800202A013A03192E2A492A08008312031345
:10049800D60013303C063D04031D532A542A972ADC
:1004A800FF30D3005308D600A401A501A801A90173
:1004B800A201A301A601A7013330C6008530C700F9
:1004C8008030D3005308C8000A128A1529240A125A
:1004D8008A118C3083120313D3005308D100DF3004
:1004E8000A128A15A6230A128A11B5308312031339
:1004F800C6008530C700C030D3005308C8000A12B0
:100508008A1529240A128A11963083120313C60009
:100518008530C700D030D3005308C8000A128A15A6
:1005280029240A128A1183120313560A03199D2AD1
:100538009E2AD72A2A3056060319A32AA42AD72A7C
:10054800233056060319A92AAA2AD72A0130A40754
:100558000318A50A0030A5072508803AFF00803057
:100568007F02031DB92A043024020318BC2ABD2ABD
:10057800D42B831203132308F4002208F3000A3053
:10058800F5000030F6000A128A15FE230A128A11B5
:100598008312031356087307A200003003180130B2
:1005A8007407A300D42B2A305606031DDC2ADD2A43
:1005B800F12A2508803AFF0080307F02031DE62AD1
:1005C800043024020318E92AEA2AD42B83120313DD
:1005D800A201A301A401A501D42B23305606031DB3
:1005E800F62AF72AD42B0A128A156E230A128A11C0
:1005F800831203132308803AFF0080307F02031D13
:10060800072BFB302202031C0A2B0B2B352B5530F2
:1006180083120313C6008530C700C030D3005308C7
:10062800C8000A128A1529240A128A118312031390
:100638008714333083120313D500BB30D400DF3066
:10064800D300D30B252BD40B252BD50B252B8312AD
:10065800031387100A128A156E230A128A110030B2
:10066800682C831203132308803AFF0080307F022E
:10067800031D402BFB3022020318432B442BD42BA1
:10068800F43083120313C6008530C7008230D300CC
:100698005308C8000A128A1529240A128A11B4308C
:1006A80083120313B8000030B90012150715CA2BBE
:1006B8000030C6008630C7009130D3005308C80008
:1006C8000A128A1529240A128A119B3083120313ED
:1006D800D3005308D1006430C8000030C90039087D
:1006E800CB003808CA000A128A151C260A128A1179
:1006F800831203134808303E0A128A15A6230A12E9
:100708008A119C3083120313D3005308D1000A3096
:10071800C8000030C9003908F6003808F500643010
:10072800F3000030F4000A128A155E250A128A11B5
:10073800740883120313CB007308CA000A128A15BF
:100748001C260A128A11831203134808303E0A1223
:100758008A15A6230A128A119D3083120313D30027
:100768005308D1000A30F3000030F4003908F600CD
:100778003808F5000A128A155E250A128A117308CC
:10078800303E0A128A15A6230A128A11831203130D
:1007980038083904031DD12BD22B5C2B0130682C6F
:1007A800013083120313A6070318A70A0030A7070E
:1007B8001A3026062704031DE22BE32B522CA60130
:1007C800A701280829040319EA2BEC2B0130ED2B8B
:1007D8000030D300D4015308A8005408A900C83039
:1007E800D3005308D1006430C8000030C900230882
:1007F800CB002208CA000A128A151C260A128A117E
:10080800831203134808303E0A128A15A6230A12D7
:100818008A11C93083120313D3005308D1000A3058
:10082800C8000030C9002308F6002208F50064302B
:10083800F3000030F4000A128A155E250A128A11A4
:10084800740883120313CB007308CA000A128A15AE
:100858001C260A128A11831203134808303E0A1212
:100868008A15A6230A128A11CA3083120313D300E9
:100878005308D1000A30F3000030F4002308F600D2
:100888002208F5000A128A155E250A128A117308D1
:10089800303E0A128A15A6230A128A1183120313FC
:1008A800280829040319592C5A2C672C7230C600C1
:1008B8008530C700C830D3005308C8000A128A150B
:1008C80029240A128A111130080083120313D9004F
:1008D800D22C0A128A15C9240A128A11EE2C0A127D
:1008E8008A15FF260A128A11EE2C59080A128A1153
:1008F80028200A128A11EE2C59080A128A11282077
:100908000A128A11EE2C32083304031D8C2C8D2C0C
:10091800C92C59080A128A114A220A128A1183120A
:100928000313D700D8015708B6005808B70036088F
:100938003704031DA02CA12CAA2C0130B4000030D0
:10094800B5001330BC000030BD00EE2C3603370470
:10095800031DAF2CB02CC62C121107110130B400A6
:100968000030B5000130B2000030B3000A128A1519
:100978006E230A128A11143083120313BC0000304C
:10098800BD00EE2CB401B501EE2CB401B501590837
:100998000A128A1128200A128A11EE2C3F08003AFE
:1009A8000319D72CEE2C3E08013A03196D2C033A93
:1009B8000319792C013A0319802C073A0319872C5B
:1009C800013A0319732C033A0319732C013A0319DA
:1009D800EE2CEE2C8312031334083504031DF52C7A
:0E09E800F62CFA2CF030BC000030BD000800E8
:100A000034342E34533474346134723474342F34A7
:100A100052346534733475346D3465342034203485
:100A200000342034203450346C34653461347334F1
:100A30006534203463346C346F347334653420345B
:100A40002034003443344F344F344B3449344E3423
:100A500047342034543449344D34453420345534EB
:100A60005034203400345334453454342034543416
:100A700045344D3450342E3420342834203420343E
:100A8000433420342934003444346F346F347234A6
:100A900020347334743461347434753473343A34B8
:100AA0004F34503445344E34003445344E3454348D
:100AB000453452342034563441344C34493444346F
:100AC0002034543445344D345034003436342E34CC
:100AD000533474346F347034203420342034203450
:100AE00020342034203420342034003435342E3463
:100AF00050346134753473346534203420342034F8
:100B0000203420342034203420340034533445340D
:100B100054342034543449344D34453428344D341D
:100B20004D343A3453345334293400342A343A346B
:100B300043344C34453441345234203423343A3431
:100B400045344E3454344534523400344D346934D1
:100B5000633472346F3477346134763465342034DE
:100B60004F34763465346E34003420345434453494
:100B70004D34503420343A3420343034303430342E
:100B80002034003450346F34773465347234203478
:100B90003D34203439343034303457340034333435
:100BA0002E3443346F346E347634653463347434A5
:100BB00069346F346E340034543449344D34453420
:100BC0002D342034303430343A343034303400343E
:100BD00050346F3477346534723469346E3467342A
:100BE00020344F344E3400345034723465342D3454
:100BF000483465346134743469346E346734003495
:100C0000543469346D3465342034523465346D3471
:100C10002E343D3400342034543469346D3465341A
:100C200020343D3420342034003432342E344734E0
:100C3000723469346C346C34003431342E346D3495
:100C40006934633472346F34003434342E345334A2
:100C5000743461347234743400340A128A15BB233C
:100C60000A128A110A128A1585260A128A110A1294
:100C70008A156E230A128A11013083120313BE00F3
:100C80000030BF0001300A128A15D9230A128A11D6
:100C900083120313DA005A08DD0002303E063F04D7
:100CA0000319532E542E452F03303E063F040319DB
:100CB0005A2E5B2E452F04303E063F04031D612E45
:100CC000622E642E452F452F5D03031D682E692E6D
:100CD000A62E3E033F04031D6E2E6F2EA62E02305D
:100CE000BE000030BF001130BC000030BD00F30179
:100CF0000C300A128A155C240A128A110A128A150B
:100D00006E230A128A11C23083120313C600853083
:100D1000C700C030DA005A08C8000A128A15292410
:100D20000A128A114D3083120313DC001930DB00E4
:100D30004F30DA00DA0B9A2EDB0B9A2EDC0B9A2E50
:100D40000A128A156E230A128A11452F02305D0697
:100D5000031DAB2EAC2EBB2E3E033F04031DB12E54
:100D6000B22EBB2E0330BE000030BF001230BC00DC
:100D70000030BD00A02E03305D06031DC02EC12E25
:100D8000D02E3E033F04031DC62EC72ED02E0430A6
:100D9000BE000030BF001330BC000030BD00A02EEC
:100DA00004305D06031DD52ED62E252F3E033F04AD
:100DB000031DDB2EDC2EE92EBA01BB011E30B8006C
:100DC0000030B900121507150630BE000030BF0014
:100DD000452F05303E063F04031DEF2EF02E202F39
:100DE00004305D06031DF52EF62E202F1E30B807A9
:100DF0000318B90A0030B9073908803AFF0080307B
:100E00007F02031D052F3D303802031C082F092FD8
:100E1000172F013083120313BA070318BB0A0030DF
:100E2000BB07C430B8070318B90AFF30B9078312EB
:100E30000313121507150630BE000030BF00452F02
:100E40000530BE000030BF00452F05305D06031D94
:100E50002A2F2B2F322F0730BE000030BF00121177
:100E60000711452F06305D06031D372F382F632EDF
:100E7000121107110A128A156E230A128A11013003
:100E800083120313BE000030BF00831203135D08FA
:100E90000A128A1169240A128A11422E0A128A1130
:100EA000102883120313881108158814081464305D
:100EB000F3000030F400FF30F3070318F40AFF30AA
:100EC000F407730A031D682F740A031D682F692F26
:100ED0005B2F8312031306186E2F6F2F712F0130B3
:100EE000FC2F8618742F752F772F0230FC2F0619D0
:100EF0007A2F7B2F7D2F0330FC2F88150811881443
:100F000008146430F3000030F400FF30F3070318D6
:100F1000F40AFF30F407730A031D922F740A031DAD
:100F2000922F932F852F831203130618982F992F32
:100F30009B2F0430FC2F86189E2F9F2FA12F05304A
:100F4000FC2F0619A42FA52FA72F0630FC2F8815DC
:100F50000815881008146430F3000030F400FF30E6
:100F6000F3070318F40AFF30F407730A031DBC2FBC
:100F7000740A031DBC2FBD2FAF2F83120313061855
:100F8000C22FC32FC52F0730FC2F8618C82FC92F9B
:100F9000CB2F0830FC2F0619CE2FCF2FD12F0930A1
:100FA000FC2F88150815881408106430F3000030F1
:100FB000F400FF30F3070318F40AFF30F407730A54
:100FC000031DE62F740A031DE62FE72FD92F831286
:100FD00003130618EC2FED2FEF2F2A30FC2F861865
:100FE000F22FF32FF52F0030FC2F0619F82FF92FD1
:0C0FF000FB2F2330FC2FFF3008000134E1
:10100000FF1B0A2883137F1883170008840A03191B
:10101000FF0A08007F087F398A000408840A031940
:04102000FF0A820041
:1016DC00F30101300A128A155C240A128A150800DB
:1016EC0064008001840A0406031900340406772B75
:1016FC00831603138801091189100A128A15B9255A
:10170C000A128A1508008312031312149214FA3069
:10171C008316031392008C14831203131211080006
:10172C00831603130608073886000808F03988006A
:10173C0081138312031388150815881408140800E4
:10174C0083120313D200F30151080A128A155C2488
:10175C000A128A15F301F30A8312031352080A12B0
:10176C008A155C240A128A1508000A128A157E232F
:10177C000A128A150A128A1596230A128A150A1257
:10178C008A1589230A128A1583160313871083126C
:10179C000313871083160313071183120313071106
:1017AC000B178B170800F6000A128A1151270A1220
:1017BC008A15F5007508F7007608031DE62BE72B54
:1017CC00E92B7708FD2B770A0319ED2BEE2BF52B64
:1017DC007A080319F22BF32BF52BFA01E72B770A76
:1017EC00031DF92BFA2BFC2BFA01FA0AFF30080027
:1017FC0083120313C601C701731C052C062C0E2C77
:10180C00750883120313C6070318C70A7608C7079F
:10181C0001300310F50DF60DFF3E031D0F2C0130AA
:10182C000310F40CF30CFF3E031D162C7308740408
:10183C00031D212C222C022C831203134708F400C5
:10184C004608F3000800F3018312031348080A1238
:10185C008A155C240A128A154B2CF301F30A4708EB
:10186C00FF00460884000A128A1500200A128A1505
:10187C000A128A155C240A128A150130831203138A
:10188C00C6070318C70A0030C7078312031347089B
:10189C00FF00460884000A128A1500200A128A15D5
:1018AC00003A031D5A2C5B2C332C0800F6007318DD
:1018BC00602C642C831203130915672C83120313F9
:1018CC0009117608F03988008914A630F400F40B5D
:1018DC006D2C000083120313891076080F39F40065
:1018EC0003300310F40DFF3E031D772C0310740D11
:1018FC0088008914A630F400F40B822C00008312AB
:10190C00031389101B30F5009E30F400F40B8C2C63
:10191C00F50B8C2C00000800831203138619972CEE
:10192C00982CC52C8714071112110A128A156E23D4
:10193C000A128A15443083120313C6008530C7007F
:10194C00C030F7007708C8000A128A1529240A1239
:10195C008A15113083120313C6008530C7009030EE
:10196C00F7007708C8000A128A1529240A128A156A
:10197C0083120313861DC32CC42CBE2CC82C8710B9
:10198C000715121508001D3083120313C60086308C
:10199C00C7008030F7007708C8000A128A1529247E
:1019AC000A128A15153083120313C6008630C7003D
:1019BC00C030F7007708C8000A128A1529240A12C9
:1019CC008A15CF3083120313C6008530C7009030C0
:1019DC00F7007708C8000A128A1529240A128A15FA
:1019EC00253083120313C6008630C700D030F700B1
:1019FC007708C8000A128A1529240A128A150800C9
:101A0C008C1C092D0A2D552D0130F8070318F90AE5
:101A1C000030F907E2307806043003197906031D0B
:101A2C00182D192D522DF801F9013908803AFF00B3
:101A3C0080307F02031D242D01303802031C272D1A
:101A4C00282D312DFF3083120313B8070318B90A60
:101A5C00FF30B907522D8312031338083904031DC4
:101A6C00382D392D522D3B08803AFF0080307F02F3
:101A7C00031D422D01303A02031C452D462D522DDB
:101A8C00FF3083120313BA070318BB0AFF30BB07DE
:101A9C003B30B8000030B900831203138C1072086D
:101AAC00FF0071088A00700E8300FE0E7E0E090086
:101ABC0083120313C701F61F642D652D6C2DF509D8
:101ACC00F609F50A0319F60AC701C70AF41F6F2DA8
:101ADC00702D752DF309F409F30A0319F40A730830
:101AEC00740403197A2D7B2DAA2DC601C60A892DE3
:101AFC0001300310F30DF40DFF3E031D7F2D01305B
:101B0C00F7007708C607F41F8C2D8D2D7E2D7408D9
:101B1C007602031D932D73087502031C962D972DC9
:101B2C009D2D7308F5027408031CF603F6020130B0
:101B3C000310F40CF30CFF3E031D9E2D0130C60266
:101B4C00031DA92DAA2D8D2D47080319AE2DAF2DE0
:101B5C00B42DF509F609F50A0319F60A7608F4000E
:101B6C007508F3000800C33083120313C700CC3090
:101B7C00C600C60BBF2DC70BBF2D0000F3013030C4
:101B8C000A128A155C240A128A151B30831203135D
:101B9C00C7009D30C600C60BD12DC70BD12DD62D3D
:101BAC00F30130300A128A155C240A128A15A5300A
:101BBC0083120313C600C60BE12DE42DF301303064
:101BCC000A128A155C240A128A15EC2DED2D0000E0
:101BDC00F30102300A128A155C240A128A15A53008
:101BEC0083120313C600C60BF92DFC2DF301013033
:101BFC000A128A155C240A128A1504308312031304
:101C0C00C7003D30C600C60B092EC70B092EF301C9
:101C1C000C300A128A155C240A128A15A53083121C
:101C2C000313C600C60B182E1B2E080083120313B9
:101C3C00CE01C91F222E232E2A2EC809C909C80A73
:101C4C000319C90ACE01CE0ACB1F2D2E2E2E372EEC
:101C5C00CA09CB09CA0A0319CB0A0130CC004C08BB
:101C6C00CE06CF01D0014808490403193E2E3F2E61
:101C7C00762ECD01CD0A4D2E01300310C80DC90DA5
:101C8C00FF3E031D432E0130CC004C08CD07C91F6D
:101C9C00502E512E422E01300310CF0DD00DFF3E91
:101CAC00031D522E49084B02031D5E2E48084A02A2
:101CBC00031C612E622E692E4808CA024908031CB7
:101CCC00CB03CB024F1401300310C90CC80CFF3EE0
:101CDC00031D6A2E0130CD02031D752E762E512E5A
:101CEC004E0803197A2E7B2E802ECF09D009CF0AED
:101CFC000319D00A5008C9004F08C8000800831205
:101D0C000313D601D701831203135608803ED30068
:101D1C005308D100FF300A128A15A6230A128A151D
:101D2C00013083120313D6070318D70A0030D707E4
:101D3C005708803AFF0080307F02031DA72E103019
:101D4C005602031CAA2EAB2E892EE83083120313E5
:101D5C00C6008530C700C230D3005308C8000A1231
:101D6C008A1529240A128A15A63083120313C60079
:101D7C008530C7009130D3005308C8000A128A1569
:101D8C0029240A128A1583120313D801D90183124C
:101D9C0003135808D03ED3005308D100FF300A1269
:101DAC008A15A6230A128A15013083120313D80749
:101DBC000318D90A0030D9075908803AFF0080303F
:101DCC007F02031DEB2E10305802031CEE2EEF2E5B
:101DDC00CD2E1A3083120313D5005E30D4006D3033
:101DEC00D300D30BF72ED40BF72ED50BF72EFE2EDC
:101DFC0008000A128A1592240A128A150B308312D3
:101E0C000313C6008630C7008030D3005308C800C7
:101E1C000A128A1529240A128A150A30831203130E
:101E2C00C8000030C9003B08CB003A08CA000A12AF
:101E3C008A151C260A128A15831203134808303E91
:101E4C00D3005308C0000A30F3000030F4003B0804
:101E5C00F6003A08F5000A128A155E250A128A1550
:101E6C007308303E83120313D3005308C100C20120
:101E7C004030C6000030C7008930D3005308C8007A
:101E8C000A128A1529240A128A158B30831203131D
:101E9C00D3005308D1003A300A128A15A6230A122D
:101EAC008A150A3083120313C8000030C9003908A0
:101EBC00CB003808CA000A128A151C260A128A1589
:101ECC00831203134808303ED3005308C3000A3072
:101EDC00F3000030F4003908F6003808F5000A1257
:101EEC008A155E250A128A157308303E8312031375
:101EFC00D3005308C400C5014330C6000030C700EE
:101F0C008C30D3005308C8000A128A1529240A12EF
:101F1C008A15003083120313C6008530C700C03009
:101F2C00D3005308C8000A128A1529240A128A15EC
:101F3C00763083120313C6008530C7009030D3006F
:101F4C005308C8000A128A1529240A128A15663009
:101F5C0083120313C6008530C700D030D30053085A
:101F6C00C8000A128A1529240A128A15831203132F
:101F7C003A083B04031DC32FC42FFF2F3808390424
:101F8C00031DC92FCA2FFF2F07110A128A156E23A2
:101F9C000A128A15223083120313C6008530C7003B
:101FAC00C030D3005308C8000A128A1529240A121B
:101FBC008A158312031387144D3083120313D50033
:101FCC001930D4004F30D300D30BEA2FD40BEA2FA7
:101FDC00D50BEA2F8312031387100A128A156E236E
:101FEC000A128A15013083120313BE000030BF00A1
:041FFC0012110800B6
:02400E00FB3F76
:00000001FF
